{
  "_format": "hh-sol-artifact-1",
  "contractName": "CeloERC721",
  "sourceName": "contracts/CeloERC721.sol",
  "abi": [
    {
      "inputs": [
        {
          "internalType": "string",
          "name": "name",
          "type": "string"
        },
        {
          "internalType": "string",
          "name": "symbol",
          "type": "string"
        }
      ],
      "stateMutability": "nonpayable",
      "type": "constructor"
    },
    {
      "anonymous": false,
      "inputs": [
        {
          "indexed": true,
          "internalType": "address",
          "name": "owner",
          "type": "address"
        },
        {
          "indexed": true,
          "internalType": "address",
          "name": "approved",
          "type": "address"
        },
        {
          "indexed": true,
          "internalType": "uint256",
          "name": "tokenId",
          "type": "uint256"
        }
      ],
      "name": "Approval",
      "type": "event"
    },
    {
      "anonymous": false,
      "inputs": [
        {
          "indexed": true,
          "internalType": "address",
          "name": "owner",
          "type": "address"
        },
        {
          "indexed": true,
          "internalType": "address",
          "name": "operator",
          "type": "address"
        },
        {
          "indexed": false,
          "internalType": "bool",
          "name": "approved",
          "type": "bool"
        }
      ],
      "name": "ApprovalForAll",
      "type": "event"
    },
    {
      "anonymous": false,
      "inputs": [
        {
          "indexed": true,
          "internalType": "address",
          "name": "from",
          "type": "address"
        },
        {
          "indexed": true,
          "internalType": "address",
          "name": "to",
          "type": "address"
        },
        {
          "indexed": true,
          "internalType": "uint256",
          "name": "tokenId",
          "type": "uint256"
        }
      ],
      "name": "Transfer",
      "type": "event"
    },
    {
      "inputs": [
        {
          "internalType": "uint256",
          "name": "BidId",
          "type": "uint256"
        }
      ],
      "name": "BidURI",
      "outputs": [
        {
          "internalType": "string",
          "name": "",
          "type": "string"
        }
      ],
      "stateMutability": "view",
      "type": "function"
    },
    {
      "inputs": [
        {
          "internalType": "uint256",
          "name": "ProjectId",
          "type": "uint256"
        },
        {
          "internalType": "uint256",
          "name": "GranttId",
          "type": "uint256"
        }
      ],
      "name": "CreateGrantProject",
      "outputs": [
        {
          "internalType": "uint256",
          "name": "",
          "type": "uint256"
        }
      ],
      "stateMutability": "nonpayable",
      "type": "function"
    },
    {
      "inputs": [],
      "name": "_EventTokenSearchIds",
      "outputs": [
        {
          "internalType": "uint256",
          "name": "",
          "type": "uint256"
        }
      ],
      "stateMutability": "view",
      "type": "function"
    },
    {
      "inputs": [],
      "name": "_GrantEventIds",
      "outputs": [
        {
          "internalType": "uint256",
          "name": "",
          "type": "uint256"
        }
      ],
      "stateMutability": "view",
      "type": "function"
    },
    {
      "inputs": [
        {
          "internalType": "uint256",
          "name": "",
          "type": "uint256"
        }
      ],
      "name": "_GrantEventURIs",
      "outputs": [
        {
          "internalType": "string",
          "name": "",
          "type": "string"
        }
      ],
      "stateMutability": "view",
      "type": "function"
    },
    {
      "inputs": [],
      "name": "_GrantProjectIds",
      "outputs": [
        {
          "internalType": "uint256",
          "name": "",
          "type": "uint256"
        }
      ],
      "stateMutability": "view",
      "type": "function"
    },
    {
      "inputs": [],
      "name": "_GrantVoteIds",
      "outputs": [
        {
          "internalType": "uint256",
          "name": "",
          "type": "uint256"
        }
      ],
      "stateMutability": "view",
      "type": "function"
    },
    {
      "inputs": [
        {
          "internalType": "uint256",
          "name": "",
          "type": "uint256"
        }
      ],
      "name": "_JudgerURIs",
      "outputs": [
        {
          "internalType": "string",
          "name": "",
          "type": "string"
        }
      ],
      "stateMutability": "view",
      "type": "function"
    },
    {
      "inputs": [
        {
          "internalType": "uint256",
          "name": "",
          "type": "uint256"
        },
        {
          "internalType": "uint256",
          "name": "",
          "type": "uint256"
        }
      ],
      "name": "_SearchedStore",
      "outputs": [
        {
          "internalType": "string",
          "name": "",
          "type": "string"
        }
      ],
      "stateMutability": "view",
      "type": "function"
    },
    {
      "inputs": [
        {
          "internalType": "uint256",
          "name": "_tokenId",
          "type": "uint256"
        }
      ],
      "name": "_getSearchedTokenURI",
      "outputs": [
        {
          "internalType": "string",
          "name": "",
          "type": "string"
        }
      ],
      "stateMutability": "view",
      "type": "function"
    },
    {
      "inputs": [
        {
          "internalType": "uint256",
          "name": "bidId",
          "type": "uint256"
        },
        {
          "internalType": "string",
          "name": "_bidURI",
          "type": "string"
        }
      ],
      "name": "_setBidURI",
      "outputs": [],
      "stateMutability": "nonpayable",
      "type": "function"
    },
    {
      "inputs": [
        {
          "internalType": "uint256",
          "name": "_eventId",
          "type": "uint256"
        },
        {
          "internalType": "string",
          "name": "_raised",
          "type": "string"
        }
      ],
      "name": "_setEventRaised",
      "outputs": [],
      "stateMutability": "nonpayable",
      "type": "function"
    },
    {
      "inputs": [
        {
          "internalType": "uint256",
          "name": "eventId",
          "type": "uint256"
        },
        {
          "internalType": "string",
          "name": "_eventWallet",
          "type": "string"
        },
        {
          "internalType": "string",
          "name": "_eventURI",
          "type": "string"
        }
      ],
      "name": "_setEventURI",
      "outputs": [],
      "stateMutability": "nonpayable",
      "type": "function"
    },
    {
      "inputs": [
        {
          "internalType": "uint256",
          "name": "eventId",
          "type": "uint256"
        },
        {
          "internalType": "string",
          "name": "_eventURI",
          "type": "string"
        }
      ],
      "name": "_setGrantEventURI",
      "outputs": [],
      "stateMutability": "nonpayable",
      "type": "function"
    },
    {
      "inputs": [
        {
          "internalType": "uint256",
          "name": "TokenBidId",
          "type": "uint256"
        },
        {
          "internalType": "uint256",
          "name": "TokenId",
          "type": "uint256"
        },
        {
          "internalType": "string",
          "name": "_BidURI",
          "type": "string"
        }
      ],
      "name": "_setTokenBid",
      "outputs": [],
      "stateMutability": "nonpayable",
      "type": "function"
    },
    {
      "inputs": [
        {
          "internalType": "uint256",
          "name": "EventTokenId",
          "type": "uint256"
        },
        {
          "internalType": "uint256",
          "name": "EventId",
          "type": "uint256"
        },
        {
          "internalType": "string",
          "name": "_tokenURI",
          "type": "string"
        }
      ],
      "name": "_setTokenEvent",
      "outputs": [],
      "stateMutability": "nonpayable",
      "type": "function"
    },
    {
      "inputs": [
        {
          "internalType": "uint256",
          "name": "tokenId",
          "type": "uint256"
        },
        {
          "internalType": "string",
          "name": "_tokenURI",
          "type": "string"
        }
      ],
      "name": "_setTokenURI",
      "outputs": [],
      "stateMutability": "nonpayable",
      "type": "function"
    },
    {
      "inputs": [
        {
          "internalType": "address",
          "name": "to",
          "type": "address"
        },
        {
          "internalType": "uint256",
          "name": "tokenId",
          "type": "uint256"
        }
      ],
      "name": "approve",
      "outputs": [],
      "stateMutability": "nonpayable",
      "type": "function"
    },
    {
      "inputs": [
        {
          "internalType": "address",
          "name": "owner",
          "type": "address"
        }
      ],
      "name": "balanceOf",
      "outputs": [
        {
          "internalType": "uint256",
          "name": "",
          "type": "uint256"
        }
      ],
      "stateMutability": "view",
      "type": "function"
    },
    {
      "inputs": [
        {
          "internalType": "address",
          "name": "_claimer",
          "type": "address"
        },
        {
          "internalType": "string",
          "name": "_tokenURI",
          "type": "string"
        },
        {
          "internalType": "uint256",
          "name": "_eventid",
          "type": "uint256"
        }
      ],
      "name": "claimToken",
      "outputs": [
        {
          "internalType": "uint256",
          "name": "",
          "type": "uint256"
        }
      ],
      "stateMutability": "nonpayable",
      "type": "function"
    },
    {
      "inputs": [
        {
          "internalType": "uint256",
          "name": "_tokenId",
          "type": "uint256"
        },
        {
          "internalType": "string",
          "name": "_bidURI",
          "type": "string"
        },
        {
          "internalType": "string",
          "name": "_updatedURI",
          "type": "string"
        },
        {
          "internalType": "uint256",
          "name": "_eventid",
          "type": "uint256"
        },
        {
          "internalType": "string",
          "name": "_raised",
          "type": "string"
        }
      ],
      "name": "createBid",
      "outputs": [],
      "stateMutability": "nonpayable",
      "type": "function"
    },
    {
      "inputs": [
        {
          "internalType": "string",
          "name": "_eventWallet",
          "type": "string"
        },
        {
          "internalType": "string",
          "name": "_eventURI",
          "type": "string"
        }
      ],
      "name": "createEvent",
      "outputs": [
        {
          "internalType": "uint256",
          "name": "",
          "type": "uint256"
        }
      ],
      "stateMutability": "nonpayable",
      "type": "function"
    },
    {
      "inputs": [
        {
          "internalType": "string",
          "name": "_eventURI",
          "type": "string"
        }
      ],
      "name": "createGrantEvent",
      "outputs": [
        {
          "internalType": "uint256",
          "name": "",
          "type": "uint256"
        }
      ],
      "stateMutability": "nonpayable",
      "type": "function"
    },
    {
      "inputs": [
        {
          "internalType": "string",
          "name": "Wallet",
          "type": "string"
        },
        {
          "internalType": "uint256",
          "name": "ProjectId",
          "type": "uint256"
        },
        {
          "internalType": "uint256",
          "name": "GranttId",
          "type": "uint256"
        }
      ],
      "name": "createGrantVote",
      "outputs": [
        {
          "internalType": "uint256",
          "name": "",
          "type": "uint256"
        }
      ],
      "stateMutability": "nonpayable",
      "type": "function"
    },
    {
      "inputs": [
        {
          "internalType": "uint256",
          "name": "eventId",
          "type": "uint256"
        }
      ],
      "name": "eventURI",
      "outputs": [
        {
          "internalType": "string[2]",
          "name": "",
          "type": "string[2]"
        }
      ],
      "stateMutability": "view",
      "type": "function"
    },
    {
      "inputs": [
        {
          "internalType": "uint256",
          "name": "tokenId",
          "type": "uint256"
        }
      ],
      "name": "getApproved",
      "outputs": [
        {
          "internalType": "address",
          "name": "",
          "type": "address"
        }
      ],
      "stateMutability": "view",
      "type": "function"
    },
    {
      "inputs": [
        {
          "internalType": "string",
          "name": "_bidURI",
          "type": "string"
        }
      ],
      "name": "getBidIdByUri",
      "outputs": [
        {
          "internalType": "uint256",
          "name": "",
          "type": "uint256"
        }
      ],
      "stateMutability": "view",
      "type": "function"
    },
    {
      "inputs": [
        {
          "internalType": "uint256",
          "name": "TokenID",
          "type": "uint256"
        }
      ],
      "name": "getBidsSearchToken",
      "outputs": [
        {
          "internalType": "string[]",
          "name": "",
          "type": "string[]"
        }
      ],
      "stateMutability": "view",
      "type": "function"
    },
    {
      "inputs": [
        {
          "internalType": "uint256",
          "name": "Grantid",
          "type": "uint256"
        },
        {
          "internalType": "uint256",
          "name": "ProjectId",
          "type": "uint256"
        }
      ],
      "name": "getCheckSubmittedProjectGrant",
      "outputs": [
        {
          "internalType": "bool",
          "name": "",
          "type": "bool"
        }
      ],
      "stateMutability": "view",
      "type": "function"
    },
    {
      "inputs": [
        {
          "internalType": "uint256",
          "name": "_eventId",
          "type": "uint256"
        }
      ],
      "name": "getEventRaised",
      "outputs": [
        {
          "internalType": "string",
          "name": "",
          "type": "string"
        }
      ],
      "stateMutability": "view",
      "type": "function"
    },
    {
      "inputs": [
        {
          "internalType": "uint256",
          "name": "EventId",
          "type": "uint256"
        },
        {
          "internalType": "string",
          "name": "_tokenURI",
          "type": "string"
        }
      ],
      "name": "getGetEventsTokenID",
      "outputs": [
        {
          "internalType": "uint256",
          "name": "",
          "type": "uint256"
        }
      ],
      "stateMutability": "view",
      "type": "function"
    },
    {
      "inputs": [
        {
          "internalType": "string",
          "name": "Wallet",
          "type": "string"
        }
      ],
      "name": "getSearchEventbyWallet",
      "outputs": [
        {
          "internalType": "string[]",
          "name": "",
          "type": "string[]"
        }
      ],
      "stateMutability": "view",
      "type": "function"
    },
    {
      "inputs": [
        {
          "internalType": "uint256",
          "name": "Grantid",
          "type": "uint256"
        },
        {
          "internalType": "uint256",
          "name": "ProjectId",
          "type": "uint256"
        }
      ],
      "name": "getSearchedGrantVoteProject",
      "outputs": [
        {
          "internalType": "string[]",
          "name": "",
          "type": "string[]"
        }
      ],
      "stateMutability": "view",
      "type": "function"
    },
    {
      "inputs": [
        {
          "internalType": "uint256",
          "name": "Grantid",
          "type": "uint256"
        }
      ],
      "name": "getSearchedProjectByGrantID",
      "outputs": [
        {
          "internalType": "uint256[]",
          "name": "",
          "type": "uint256[]"
        }
      ],
      "stateMutability": "view",
      "type": "function"
    },
    {
      "inputs": [
        {
          "internalType": "uint256",
          "name": "TokenID",
          "type": "uint256"
        }
      ],
      "name": "getTotalBid",
      "outputs": [
        {
          "internalType": "string[]",
          "name": "",
          "type": "string[]"
        }
      ],
      "stateMutability": "view",
      "type": "function"
    },
    {
      "inputs": [
        {
          "internalType": "string",
          "name": "_tokenURI",
          "type": "string"
        }
      ],
      "name": "gettokenIdByUri",
      "outputs": [
        {
          "internalType": "uint256",
          "name": "",
          "type": "uint256"
        }
      ],
      "stateMutability": "view",
      "type": "function"
    },
    {
      "inputs": [
        {
          "internalType": "uint256",
          "name": "EventID",
          "type": "uint256"
        }
      ],
      "name": "gettokenSearchEventTotal",
      "outputs": [
        {
          "internalType": "string[]",
          "name": "",
          "type": "string[]"
        }
      ],
      "stateMutability": "view",
      "type": "function"
    },
    {
      "inputs": [
        {
          "internalType": "address",
          "name": "owner",
          "type": "address"
        },
        {
          "internalType": "address",
          "name": "operator",
          "type": "address"
        }
      ],
      "name": "isApprovedForAll",
      "outputs": [
        {
          "internalType": "bool",
          "name": "",
          "type": "bool"
        }
      ],
      "stateMutability": "view",
      "type": "function"
    },
    {
      "inputs": [],
      "name": "name",
      "outputs": [
        {
          "internalType": "string",
          "name": "",
          "type": "string"
        }
      ],
      "stateMutability": "view",
      "type": "function"
    },
    {
      "inputs": [
        {
          "internalType": "uint256",
          "name": "tokenId",
          "type": "uint256"
        }
      ],
      "name": "ownerOf",
      "outputs": [
        {
          "internalType": "address",
          "name": "",
          "type": "address"
        }
      ],
      "stateMutability": "view",
      "type": "function"
    },
    {
      "inputs": [
        {
          "internalType": "address",
          "name": "from",
          "type": "address"
        },
        {
          "internalType": "address",
          "name": "to",
          "type": "address"
        },
        {
          "internalType": "uint256",
          "name": "tokenId",
          "type": "uint256"
        }
      ],
      "name": "safeTransferFrom",
      "outputs": [],
      "stateMutability": "nonpayable",
      "type": "function"
    },
    {
      "inputs": [
        {
          "internalType": "address",
          "name": "from",
          "type": "address"
        },
        {
          "internalType": "address",
          "name": "to",
          "type": "address"
        },
        {
          "internalType": "uint256",
          "name": "tokenId",
          "type": "uint256"
        },
        {
          "internalType": "bytes",
          "name": "_data",
          "type": "bytes"
        }
      ],
      "name": "safeTransferFrom",
      "outputs": [],
      "stateMutability": "nonpayable",
      "type": "function"
    },
    {
      "inputs": [
        {
          "internalType": "address",
          "name": "operator",
          "type": "address"
        },
        {
          "internalType": "bool",
          "name": "approved",
          "type": "bool"
        }
      ],
      "name": "setApprovalForAll",
      "outputs": [],
      "stateMutability": "nonpayable",
      "type": "function"
    },
    {
      "inputs": [
        {
          "internalType": "uint256",
          "name": "GrantProjectId",
          "type": "uint256"
        },
        {
          "internalType": "uint256",
          "name": "ProjectId",
          "type": "uint256"
        },
        {
          "internalType": "uint256",
          "name": "GranttId",
          "type": "uint256"
        }
      ],
      "name": "setGrantProject",
      "outputs": [],
      "stateMutability": "nonpayable",
      "type": "function"
    },
    {
      "inputs": [
        {
          "internalType": "uint256",
          "name": "GrantVoteId",
          "type": "uint256"
        },
        {
          "internalType": "string",
          "name": "Wallet",
          "type": "string"
        },
        {
          "internalType": "string",
          "name": "ProjectId",
          "type": "string"
        },
        {
          "internalType": "string",
          "name": "GranttId",
          "type": "string"
        }
      ],
      "name": "setGrantVote",
      "outputs": [],
      "stateMutability": "nonpayable",
      "type": "function"
    },
    {
      "inputs": [
        {
          "internalType": "bytes4",
          "name": "interfaceId",
          "type": "bytes4"
        }
      ],
      "name": "supportsInterface",
      "outputs": [
        {
          "internalType": "bool",
          "name": "",
          "type": "bool"
        }
      ],
      "stateMutability": "view",
      "type": "function"
    },
    {
      "inputs": [],
      "name": "symbol",
      "outputs": [
        {
          "internalType": "string",
          "name": "",
          "type": "string"
        }
      ],
      "stateMutability": "view",
      "type": "function"
    },
    {
      "inputs": [
        {
          "internalType": "uint256",
          "name": "tokenId",
          "type": "uint256"
        }
      ],
      "name": "tokenURI",
      "outputs": [
        {
          "internalType": "string",
          "name": "",
          "type": "string"
        }
      ],
      "stateMutability": "view",
      "type": "function"
    },
    {
      "inputs": [],
      "name": "totalEvent",
      "outputs": [
        {
          "internalType": "uint256",
          "name": "",
          "type": "uint256"
        }
      ],
      "stateMutability": "view",
      "type": "function"
    },
    {
      "inputs": [],
      "name": "totalGrantEvent",
      "outputs": [
        {
          "internalType": "uint256",
          "name": "",
          "type": "uint256"
        }
      ],
      "stateMutability": "view",
      "type": "function"
    },
    {
      "inputs": [],
      "name": "totalSupply",
      "outputs": [
        {
          "internalType": "uint256",
          "name": "",
          "type": "uint256"
        }
      ],
      "stateMutability": "view",
      "type": "function"
    },
    {
      "inputs": [
        {
          "internalType": "address",
          "name": "from",
          "type": "address"
        },
        {
          "internalType": "address",
          "name": "to",
          "type": "address"
        },
        {
          "internalType": "uint256",
          "name": "tokenId",
          "type": "uint256"
        }
      ],
      "name": "transferFrom",
      "outputs": [],
      "stateMutability": "nonpayable",
      "type": "function"
    }
  ],
  "bytecode": "0x60806040523480156200001157600080fd5b5060405162005663380380620056638339818101604052810190620000379190620001a3565b818181600090805190602001906200005192919062000075565b5080600190805190602001906200006a92919062000075565b5050505050620003ac565b8280546200008390620002bd565b90600052602060002090601f016020900481019282620000a75760008555620000f3565b82601f10620000c257805160ff1916838001178555620000f3565b82800160010185558215620000f3579182015b82811115620000f2578251825591602001919060010190620000d5565b5b50905062000102919062000106565b5090565b5b808211156200012157600081600090555060010162000107565b5090565b60006200013c620001368462000251565b62000228565b9050828152602081018484840111156200015b576200015a6200038c565b5b6200016884828562000287565b509392505050565b600082601f83011262000188576200018762000387565b5b81516200019a84826020860162000125565b91505092915050565b60008060408385031215620001bd57620001bc62000396565b5b600083015167ffffffffffffffff811115620001de57620001dd62000391565b5b620001ec8582860162000170565b925050602083015167ffffffffffffffff81111562000210576200020f62000391565b5b6200021e8582860162000170565b9150509250929050565b60006200023462000247565b9050620002428282620002f3565b919050565b6000604051905090565b600067ffffffffffffffff8211156200026f576200026e62000358565b5b6200027a826200039b565b9050602081019050919050565b60005b83811015620002a75780820151818401526020810190506200028a565b83811115620002b7576000848401525b50505050565b60006002820490506001821680620002d657607f821691505b60208210811415620002ed57620002ec62000329565b5b50919050565b620002fe826200039b565b810181811067ffffffffffffffff8211171562000320576200031f62000358565b5b80604052505050565b7f4e487b7100000000000000000000000000000000000000000000000000000000600052602260045260246000fd5b7f4e487b7100000000000000000000000000000000000000000000000000000000600052604160045260246000fd5b600080fd5b600080fd5b600080fd5b600080fd5b6000601f19601f8301169050919050565b6152a780620003bc6000396000f3fe608060405234801561001057600080fd5b506004361061030c5760003560e01c80637cedbc1e1161019d578063c08e953d116100e9578063dfc5e169116100a2578063e985e9c51161007c578063e985e9c514610a69578063eb1d234d14610a99578063f327579414610ac9578063f880eb1914610ae55761030c565b8063dfc5e169146109ed578063e08033d314610a1d578063e257a94c14610a395761030c565b8063c08e953d14610905578063c87b56dd14610935578063cef80b3a14610965578063d45fc51614610983578063d654e993146109b3578063dcbe2ed9146109cf5761030c565b806396d5a73911610156578063a99bee2e11610130578063a99bee2e1461086b578063aed4796114610889578063b10a5dfa146108b9578063b88d4fde146108e95761030c565b806396d5a739146107ef578063a0fd0c6a1461081f578063a22cb4651461084f5761030c565b80637cedbc1e146107075780637eadfa6a1461073757806384eb8f6814610755578063912101cf14610771578063932a196b146107a157806395d89b41146107d15761030c565b806335011d901161025c5780634ef4e80f1161021557806353c227cc116101ef57806353c227cc1461065b578063619581581461068b5780636352211e146106a757806370a08231146106d75761030c565b80634ef4e80f146105cb5780635154380a146105fb578063523796271461062b5761030c565b806335011d90146104d35780633592dd8014610503578063390532711461051f57806342842e0e1461054f578063446a92e31461056b5780634eb083ec1461059b5761030c565b8063144cbca6116102c95780631dacc07e116102a35780631dacc07e1461043b5780631e65e1171461045757806323b872dd1461048757806328520ab7146104a35761030c565b8063144cbca6146103e35780631677bf081461040157806318160ddd1461041d5761030c565b8063015388681461031157806301ffc9a71461032d57806306fdde031461035d578063081812fc1461037b578063095ea7b3146103ab5780630ae240cf146103c7575b600080fd5b61032b60048036038101906103269190613d83565b610b03565b005b61034760048036038101906103429190613bcc565b610b77565b60405161035491906146c1565b60405180910390f35b610365610c59565b60405161037291906146dc565b60405180910390f35b61039560048036038101906103909190613d56565b610ceb565b6040516103a291906145f4565b60405180910390f35b6103c560048036038101906103c09190613b8c565b610d70565b005b6103e160048036038101906103dc9190613e6a565b610e88565b005b6103eb610ecb565b6040516103f891906148de565b60405180910390f35b61041b60048036038101906104169190613d83565b610ed1565b005b610425610efd565b60405161043291906148de565b60405180910390f35b61045560048036038101906104509190613f25565b610f07565b005b610471600480360381019061046c9190613c26565b611032565b60405161047e919061467d565b60405180910390f35b6104a1600480360381019061049c9190613a07565b611256565b005b6104bd60048036038101906104b89190613d83565b6112b6565b6040516104ca91906148de565b60405180910390f35b6104ed60048036038101906104e89190613b1d565b61138f565b6040516104fa91906148de565b60405180910390f35b61051d60048036038101906105189190614034565b6113f2565b005b61053960048036038101906105349190613ff4565b611436565b60405161054691906146c1565b60405180910390f35b61056960048036038101906105649190613a07565b6114d2565b005b61058560048036038101906105809190613d56565b6114f2565b60405161059291906146dc565b60405180910390f35b6105b560048036038101906105b09190613d56565b611597565b6040516105c291906146dc565b60405180910390f35b6105e560048036038101906105e09190613ff4565b61163c565b6040516105f291906148de565b60405180910390f35b61061560048036038101906106109190613d56565b61166e565b604051610622919061467d565b60405180910390f35b61064560048036038101906106409190613c26565b61181e565b60405161065291906148de565b60405180910390f35b61067560048036038101906106709190613d56565b61184e565b60405161068291906146dc565b60405180910390f35b6106a560048036038101906106a09190613ddf565b6118ee565b005b6106c160048036038101906106bc9190613d56565b611987565b6040516106ce91906145f4565b60405180910390f35b6106f160048036038101906106ec919061399a565b611a39565b6040516106fe91906148de565b60405180910390f35b610721600480360381019061071c9190613d56565b611af1565b60405161072e91906146dc565b60405180910390f35b61073f611baa565b60405161074c91906148de565b60405180910390f35b61076f600480360381019061076a9190613d83565b611bb4565b005b61078b60048036038101906107869190613ff4565b611be0565b604051610798919061467d565b60405180910390f35b6107bb60048036038101906107b69190613c26565b611ebf565b6040516107c891906148de565b60405180910390f35b6107d9611f2e565b6040516107e691906146dc565b60405180910390f35b61080960048036038101906108049190613d56565b611fc0565b604051610816919061469f565b60405180910390f35b61083960048036038101906108349190613d56565b612122565b604051610846919061465b565b60405180910390f35b61086960048036038101906108649190613add565b612202565b005b610873612218565b60405161088091906148de565b60405180910390f35b6108a3600480360381019061089e9190613d56565b61221e565b6040516108b0919061467d565b60405180910390f35b6108d360048036038101906108ce9190613ff4565b6123ce565b6040516108e091906146dc565b60405180910390f35b61090360048036038101906108fe9190613a5a565b61247e565b005b61091f600480360381019061091a9190613ce7565b6124e0565b60405161092c91906148de565b60405180910390f35b61094f600480360381019061094a9190613d56565b612524565b60405161095c91906146dc565b60405180910390f35b61096d612611565b60405161097a91906148de565b60405180910390f35b61099d60048036038101906109989190613c26565b612617565b6040516109aa91906148de565b60405180910390f35b6109cd60048036038101906109c89190614034565b612686565b005b6109d76126ca565b6040516109e491906148de565b60405180910390f35b610a076004803603810190610a029190613d56565b6126d0565b604051610a1491906146dc565b60405180910390f35b610a376004803603810190610a329190613d83565b612770565b005b610a536004803603810190610a4e9190613c6f565b61279c565b604051610a6091906148de565b60405180910390f35b610a836004803603810190610a7e91906139c7565b61280f565b604051610a9091906146c1565b60405180910390f35b610ab36004803603810190610aae9190613d56565b6128a3565b604051610ac0919061467d565b60405180910390f35b610ae36004803603810190610ade91906140a3565b612a53565b005b610aed612a8f565b604051610afa91906148de565b60405180910390f35b610b0c82612a99565b610b4b576040517f08c379a0000000000000000000000000000000000000000000000000000000008152600401610b429061485e565b60405180910390fd5b80601560008481526020019081526020016000209080519060200190610b7292919061363d565b505050565b60007f80ac58cd000000000000000000000000000000000000000000000000000000007bffffffffffffffffffffffffffffffffffffffffffffffffffffffff1916827bffffffffffffffffffffffffffffffffffffffffffffffffffffffff19161480610c4257507f5b5e139f000000000000000000000000000000000000000000000000000000007bffffffffffffffffffffffffffffffffffffffffffffffffffffffff1916827bffffffffffffffffffffffffffffffffffffffffffffffffffffffff1916145b80610c525750610c5182612b05565b5b9050919050565b606060008054610c6890614bf9565b80601f0160208091040260200160405190810160405280929190818152602001828054610c9490614bf9565b8015610ce15780601f10610cb657610100808354040283529160200191610ce1565b820191906000526020600020905b815481529060010190602001808311610cc457829003601f168201915b5050505050905090565b6000610cf682612a99565b610d35576040517f08c379a0000000000000000000000000000000000000000000000000000000008152600401610d2c9061483e565b60405180910390fd5b6004600083815260200190815260200160002060009054906101000a900473ffffffffffffffffffffffffffffffffffffffff169050919050565b6000610d7b82611987565b90508073ffffffffffffffffffffffffffffffffffffffff168373ffffffffffffffffffffffffffffffffffffffff161415610dec576040517f08c379a0000000000000000000000000000000000000000000000000000000008152600401610de39061489e565b60405180910390fd5b8073ffffffffffffffffffffffffffffffffffffffff16610e0b612b6f565b73ffffffffffffffffffffffffffffffffffffffff161480610e3a5750610e3981610e34612b6f565b61280f565b5b610e79576040517f08c379a0000000000000000000000000000000000000000000000000000000008152600401610e70906147be565b60405180910390fd5b610e838383612b77565b505050565b60405180606001604052808281526020018381526020018481525060106000868152602001908152602001600020906003610ec49291906136c3565b5050505050565b600e5481565b80601960008481526020019081526020016000209080519060200190610ef892919061363d565b505050565b6000600654905090565b6000610fae83601560008981526020019081526020016000208054610f2b90614bf9565b80601f0160208091040260200160405190810160405280929190818152602001828054610f5790614bf9565b8015610fa45780601f10610f7957610100808354040283529160200191610fa4565b820191906000526020600020905b815481529060010190602001808311610f8757829003601f168201915b50505050506112b6565b905083601560008881526020019081526020016000209080519060200190610fd792919061363d565b50610fe38184866113f2565b610fed8383610ed1565b610ffa600d548787612686565b600d600081548092919061100d90614c5c565b91905055506007600081548092919061102590614c5c565b9190505550505050505050565b606060008060005b6008548110156110b05784805190602001206016600083815260200190815260200160002060006002811061107257611071614d63565b5b0160405161108091906145dd565b6040518091039020141561109d57828061109990614c5c565b9350505b80806110a890614c5c565b91505061103a565b5060008267ffffffffffffffff8111156110cd576110cc614d92565b5b60405190808252806020026020018201604052801561110057816020015b60608152602001906001900390816110eb5790505b50905060005b60085481101561124a5785805190602001206016600083815260200190815260200160002060006002811061113e5761113d614d63565b5b0160405161114c91906145dd565b6040518091039020141561123757601660008281526020019081526020016000206001600281106111805761117f614d63565b5b01805461118c90614bf9565b80601f01602080910402602001604051908101604052809291908181526020018280546111b890614bf9565b80156112055780601f106111da57610100808354040283529160200191611205565b820191906000526020600020905b8154815290600101906020018083116111e857829003601f168201915b505050505082848151811061121d5761121c614d63565b5b6020026020010181905250828061123390614c5c565b9350505b808061124290614c5c565b915050611106565b50809350505050919050565b611267611261612b6f565b82612c30565b6112a6576040517f08c379a000000000000000000000000000000000000000000000000000000000815260040161129d906148be565b60405180910390fd5b6112b1838383612d0e565b505050565b600080600090505b600c54811015611383576112d184612f75565b80519060200120600f60008381526020019081526020016000206000600281106112fe576112fd614d63565b5b0160405161130c91906145dd565b604051809103902014801561136257508280519060200120600f600083815260200190815260200160002060016002811061134a57611349614d63565b5b0160405161135891906145dd565b6040518091039020145b156113705780915050611389565b808061137b90614c5c565b9150506112be565b50600090505b92915050565b600061139d846006546130d6565b6113a960065484610b03565b6113b6600c5483856113f2565b600660008154809291906113c990614c5c565b9190505550600c60008154809291906113e190614c5c565b919050555060065490509392505050565b604051806040016040528061140684612f75565b815260200182815250600f6000858152602001908152602001600020906002611430929190613716565b50505050565b600080600090505b600a548110156114c657836011600083815260200190815260200160002060006002811061146f5761146e614d63565b5b01541480156114a4575082601160008381526020019081526020016000206001600281106114a05761149f614d63565b5b0154145b156114b35760019150506114cc565b80806114be90614c5c565b91505061143e565b50600090505b92915050565b6114ed8383836040518060200160405280600081525061247e565b505050565b606060146000838152602001908152602001600020805461151290614bf9565b80601f016020809104026020016040519081016040528092919081815260200182805461153e90614bf9565b801561158b5780601f106115605761010080835404028352916020019161158b565b820191906000526020600020905b81548152906001019060200180831161156e57829003601f168201915b50505050509050919050565b60606019600083815260200190815260200160002080546115b790614bf9565b80601f01602080910402602001604051908101604052809291908181526020018280546115e390614bf9565b80156116305780601f1061160557610100808354040283529160200191611630565b820191906000526020600020905b81548152906001019060200180831161161357829003601f168201915b50505050509050919050565b600061164b600a548484612a53565b600a600081548092919061165e90614c5c565b9190505550600a54905092915050565b60606000600a67ffffffffffffffff81111561168d5761168c614d92565b5b6040519080825280602002602001820160405280156116c057816020015b60608152602001906001900390816116ab5790505b5090506000805b600d54811015611813576116da85612f75565b805190602001206012600083815260200190815260200160002060006002811061170757611706614d63565b5b0160405161171591906145dd565b60405180910390201415611800576012600082815260200190815260200160002060016002811061174957611748614d63565b5b01805461175590614bf9565b80601f016020809104026020016040519081016040528092919081815260200182805461178190614bf9565b80156117ce5780601f106117a3576101008083540402835291602001916117ce565b820191906000526020600020905b8154815290600101906020018083116117b157829003601f168201915b50505050508383815181106117e6576117e5614d63565b5b602002602001018190525081806117fc90614c5c565b9250505b808061180b90614c5c565b9150506116c7565b508192505050919050565b600061182c60095483611bb4565b6009600081548092919061183f90614c5c565b91905055506009549050919050565b6018602052806000526040600020600091509050805461186d90614bf9565b80601f016020809104026020016040519081016040528092919081815260200182805461189990614bf9565b80156118e65780601f106118bb576101008083540402835291602001916118e6565b820191906000526020600020905b8154815290600101906020018083116118c957829003601f168201915b505050505081565b60405180604001604052808381526020018281525060166000858152602001908152602001600020906002611924929190613716565b506040518060400160405280600181526020017f300000000000000000000000000000000000000000000000000000000000000081525060196000858152602001908152602001600020908051906020019061198192919061363d565b50505050565b6000806002600084815260200190815260200160002060009054906101000a900473ffffffffffffffffffffffffffffffffffffffff169050600073ffffffffffffffffffffffffffffffffffffffff168173ffffffffffffffffffffffffffffffffffffffff161415611a30576040517f08c379a0000000000000000000000000000000000000000000000000000000008152600401611a27906147fe565b60405180910390fd5b80915050919050565b60008073ffffffffffffffffffffffffffffffffffffffff168273ffffffffffffffffffffffffffffffffffffffff161415611aaa576040517f08c379a0000000000000000000000000000000000000000000000000000000008152600401611aa1906147de565b60405180910390fd5b600360008373ffffffffffffffffffffffffffffffffffffffff1673ffffffffffffffffffffffffffffffffffffffff168152602001908152602001600020549050919050565b606060136000838152602001908152602001600020600060028110611b1957611b18614d63565b5b018054611b2590614bf9565b80601f0160208091040260200160405190810160405280929190818152602001828054611b5190614bf9565b8015611b9e5780601f10611b7357610100808354040283529160200191611b9e565b820191906000526020600020905b815481529060010190602001808311611b8157829003601f168201915b50505050509050919050565b6000600854905090565b80601760008481526020019081526020016000209080519060200190611bdb92919061363d565b505050565b606060008060005b600b54811015611cbb57611bfb86612f75565b8051906020012060106000838152602001908152602001600020600060038110611c2857611c27614d63565b5b01604051611c3691906145dd565b6040518091039020148015611c945750611c4f85612f75565b8051906020012060106000838152602001908152602001600020600160038110611c7c57611c7b614d63565b5b01604051611c8a91906145dd565b6040518091039020145b15611ca8578280611ca490614c5c565b9350505b8080611cb390614c5c565b915050611be8565b5060008267ffffffffffffffff811115611cd857611cd7614d92565b5b604051908082528060200260200182016040528015611d0b57816020015b6060815260200190600190039081611cf65790505b50905060005b600b54811015611eb257611d2487612f75565b8051906020012060106000838152602001908152602001600020600060038110611d5157611d50614d63565b5b01604051611d5f91906145dd565b6040518091039020148015611dbd5750611d7886612f75565b8051906020012060106000838152602001908152602001600020600160038110611da557611da4614d63565b5b01604051611db391906145dd565b6040518091039020145b15611e9f5760106000828152602001908152602001600020600260038110611de857611de7614d63565b5b018054611df490614bf9565b80601f0160208091040260200160405190810160405280929190818152602001828054611e2090614bf9565b8015611e6d5780601f10611e4257610100808354040283529160200191611e6d565b820191906000526020600020905b815481529060010190602001808311611e5057829003601f168201915b5050505050828481518110611e8557611e84614d63565b5b60200260200101819052508280611e9b90614c5c565b9350505b8080611eaa90614c5c565b915050611d11565b5080935050505092915050565b600080600090505b600654811015611f2357828051906020012060156000838152602001908152602001600020604051611ef991906145dd565b60405180910390201415611f105780915050611f29565b8080611f1b90614c5c565b915050611ec7565b50600090505b919050565b606060018054611f3d90614bf9565b80601f0160208091040260200160405190810160405280929190818152602001828054611f6990614bf9565b8015611fb65780601f10611f8b57610100808354040283529160200191611fb6565b820191906000526020600020905b815481529060010190602001808311611f9957829003601f168201915b5050505050905090565b606060008060005b600a54811015612023578460116000838152602001908152602001600020600060028110611ff957611ff8614d63565b5b0154141561201057828061200c90614c5c565b9350505b808061201b90614c5c565b915050611fc8565b5060008267ffffffffffffffff8111156120405761203f614d92565b5b60405190808252806020026020018201604052801561206e5781602001602082028036833780820191505090505b50905060005b600a548110156121165785601160008381526020019081526020016000206000600281106120a5576120a4614d63565b5b0154141561210357601160008281526020019081526020016000206001600281106120d3576120d2614d63565b5b01548284815181106120e8576120e7614d63565b5b60200260200101818152505082806120ff90614c5c565b9350505b808061210e90614c5c565b915050612074565b50809350505050919050565b61212a613769565b60166000838152602001908152602001600020600280602002604051908101604052809291906000905b828210156121f757838201805461216a90614bf9565b80601f016020809104026020016040519081016040528092919081815260200182805461219690614bf9565b80156121e35780601f106121b8576101008083540402835291602001916121e3565b820191906000526020600020905b8154815290600101906020018083116121c657829003601f168201915b505050505081526020019060010190612154565b505050509050919050565b61221461220d612b6f565b83836132b0565b5050565b60095481565b60606000600a67ffffffffffffffff81111561223d5761223c614d92565b5b60405190808252806020026020018201604052801561227057816020015b606081526020019060019003908161225b5790505b5090506000805b600d548110156123c35761228a85612f75565b80519060200120601260008381526020019081526020016000206000600281106122b7576122b6614d63565b5b016040516122c591906145dd565b604051809103902014156123b057601260008281526020019081526020016000206001600281106122f9576122f8614d63565b5b01805461230590614bf9565b80601f016020809104026020016040519081016040528092919081815260200182805461233190614bf9565b801561237e5780601f106123535761010080835404028352916020019161237e565b820191906000526020600020905b81548152906001019060200180831161236157829003601f168201915b505050505083838151811061239657612395614d63565b5b602002602001018190525081806123ac90614c5c565b9250505b80806123bb90614c5c565b915050612277565b508192505050919050565b601360205281600052604060002081600281106123ea57600080fd5b016000915091505080546123fd90614bf9565b80601f016020809104026020016040519081016040528092919081815260200182805461242990614bf9565b80156124765780601f1061244b57610100808354040283529160200191612476565b820191906000526020600020905b81548152906001019060200180831161245957829003601f168201915b505050505081565b61248f612489612b6f565b83612c30565b6124ce576040517f08c379a00000000000000000000000000000000000000000000000000000000081526004016124c5906148be565b60405180910390fd5b6124da8484848461341d565b50505050565b6000612500600b54856124f286612f75565b6124fb86612f75565b610e88565b600b600081548092919061251390614c5c565b9190505550600b5490509392505050565b606061252f82612a99565b61256e576040517f08c379a00000000000000000000000000000000000000000000000000000000081526004016125659061487e565b60405180910390fd5b60156000838152602001908152602001600020805461258c90614bf9565b80601f01602080910402602001604051908101604052809291908181526020018280546125b890614bf9565b80156126055780601f106125da57610100808354040283529160200191612605565b820191906000526020600020905b8154815290600101906020018083116125e857829003601f168201915b50505050509050919050565b600a5481565b600080600090505b60075481101561267b5782805190602001206014600083815260200190815260200160002060405161265191906145dd565b604051809103902014156126685780915050612681565b808061267390614c5c565b91505061261f565b50600090505b919050565b604051806040016040528061269a84612f75565b815260200182815250601260008581526020019081526020016000209060026126c4929190613716565b50505050565b600b5481565b601760205280600052604060002060009150905080546126ef90614bf9565b80601f016020809104026020016040519081016040528092919081815260200182805461271b90614bf9565b80156127685780601f1061273d57610100808354040283529160200191612768565b820191906000526020600020905b81548152906001019060200180831161274b57829003601f168201915b505050505081565b8060146000848152602001908152602001600020908051906020019061279792919061363d565b505050565b60006127ab60085484846118ee565b6127ec6008546040518060400160405280600181526020017f3000000000000000000000000000000000000000000000000000000000000000815250610ed1565b600860008154809291906127ff90614c5c565b9190505550600854905092915050565b6000600560008473ffffffffffffffffffffffffffffffffffffffff1673ffffffffffffffffffffffffffffffffffffffff16815260200190815260200160002060008373ffffffffffffffffffffffffffffffffffffffff1673ffffffffffffffffffffffffffffffffffffffff16815260200190815260200160002060009054906101000a900460ff16905092915050565b60606000600a67ffffffffffffffff8111156128c2576128c1614d92565b5b6040519080825280602002602001820160405280156128f557816020015b60608152602001906001900390816128e05790505b5090506000805b600c54811015612a485761290f85612f75565b80519060200120600f600083815260200190815260200160002060006002811061293c5761293b614d63565b5b0160405161294a91906145dd565b60405180910390201415612a3557600f600082815260200190815260200160002060016002811061297e5761297d614d63565b5b01805461298a90614bf9565b80601f01602080910402602001604051908101604052809291908181526020018280546129b690614bf9565b8015612a035780601f106129d857610100808354040283529160200191612a03565b820191906000526020600020905b8154815290600101906020018083116129e657829003601f168201915b5050505050838381518110612a1b57612a1a614d63565b5b60200260200101819052508180612a3190614c5c565b9250505b8080612a4090614c5c565b9150506128fc565b508192505050919050565b60405180604001604052808281526020018381525060116000858152602001908152602001600020906002612a89929190613790565b50505050565b6000600a54905090565b60008073ffffffffffffffffffffffffffffffffffffffff166002600084815260200190815260200160002060009054906101000a900473ffffffffffffffffffffffffffffffffffffffff1673ffffffffffffffffffffffffffffffffffffffff1614159050919050565b60007f01ffc9a7000000000000000000000000000000000000000000000000000000007bffffffffffffffffffffffffffffffffffffffffffffffffffffffff1916827bffffffffffffffffffffffffffffffffffffffffffffffffffffffff1916149050919050565b600033905090565b816004600083815260200190815260200160002060006101000a81548173ffffffffffffffffffffffffffffffffffffffff021916908373ffffffffffffffffffffffffffffffffffffffff160217905550808273ffffffffffffffffffffffffffffffffffffffff16612bea83611987565b73ffffffffffffffffffffffffffffffffffffffff167f8c5be1e5ebec7d5bd14f71427d1e84f3dd0314c0f7b2291e5b200ac8c7c3b92560405160405180910390a45050565b6000612c3b82612a99565b612c7a576040517f08c379a0000000000000000000000000000000000000000000000000000000008152600401612c719061479e565b60405180910390fd5b6000612c8583611987565b90508073ffffffffffffffffffffffffffffffffffffffff168473ffffffffffffffffffffffffffffffffffffffff161480612cc75750612cc6818561280f565b5b80612d0557508373ffffffffffffffffffffffffffffffffffffffff16612ced84610ceb565b73ffffffffffffffffffffffffffffffffffffffff16145b91505092915050565b8273ffffffffffffffffffffffffffffffffffffffff16612d2e82611987565b73ffffffffffffffffffffffffffffffffffffffff1614612d84576040517f08c379a0000000000000000000000000000000000000000000000000000000008152600401612d7b9061471e565b60405180910390fd5b600073ffffffffffffffffffffffffffffffffffffffff168273ffffffffffffffffffffffffffffffffffffffff161415612df4576040517f08c379a0000000000000000000000000000000000000000000000000000000008152600401612deb9061475e565b60405180910390fd5b612dff838383613479565b612e0a600082612b77565b6001600360008573ffffffffffffffffffffffffffffffffffffffff1673ffffffffffffffffffffffffffffffffffffffff1681526020019081526020016000206000828254612e5a9190614b0f565b925050819055506001600360008473ffffffffffffffffffffffffffffffffffffffff1673ffffffffffffffffffffffffffffffffffffffff1681526020019081526020016000206000828254612eb19190614a88565b92505081905550816002600083815260200190815260200160002060006101000a81548173ffffffffffffffffffffffffffffffffffffffff021916908373ffffffffffffffffffffffffffffffffffffffff160217905550808273ffffffffffffffffffffffffffffffffffffffff168473ffffffffffffffffffffffffffffffffffffffff167fddf252ad1be2c89b69c2b068fc378daa952ba7f163c4a11628f55a4df523b3ef60405160405180910390a4612f7083838361347e565b505050565b60606000821415612fbd576040518060400160405280600181526020017f300000000000000000000000000000000000000000000000000000000000000081525090506130d1565b600082905060005b60008214612fef578080612fd890614c5c565b915050600a82612fe89190614ade565b9150612fc5565b60008167ffffffffffffffff81111561300b5761300a614d92565b5b6040519080825280601f01601f19166020018201604052801561303d5781602001600182028036833780820191505090505b5090505b600085146130ca576001826130569190614b0f565b9150600a856130659190614ca5565b60306130719190614a88565b60f81b81838151811061308757613086614d63565b5b60200101907effffffffffffffffffffffffffffffffffffffffffffffffffffffffffffff1916908160001a905350600a856130c39190614ade565b9450613041565b8093505050505b919050565b600073ffffffffffffffffffffffffffffffffffffffff168273ffffffffffffffffffffffffffffffffffffffff161415613146576040517f08c379a000000000000000000000000000000000000000000000000000000000815260040161313d9061481e565b60405180910390fd5b61314f81612a99565b1561318f576040517f08c379a00000000000000000000000000000000000000000000000000000000081526004016131869061473e565b60405180910390fd5b61319b60008383613479565b6001600360008473ffffffffffffffffffffffffffffffffffffffff1673ffffffffffffffffffffffffffffffffffffffff16815260200190815260200160002060008282546131eb9190614a88565b92505081905550816002600083815260200190815260200160002060006101000a81548173ffffffffffffffffffffffffffffffffffffffff021916908373ffffffffffffffffffffffffffffffffffffffff160217905550808273ffffffffffffffffffffffffffffffffffffffff16600073ffffffffffffffffffffffffffffffffffffffff167fddf252ad1be2c89b69c2b068fc378daa952ba7f163c4a11628f55a4df523b3ef60405160405180910390a46132ac6000838361347e565b5050565b8173ffffffffffffffffffffffffffffffffffffffff168373ffffffffffffffffffffffffffffffffffffffff16141561331f576040517f08c379a00000000000000000000000000000000000000000000000000000000081526004016133169061477e565b60405180910390fd5b80600560008573ffffffffffffffffffffffffffffffffffffffff1673ffffffffffffffffffffffffffffffffffffffff16815260200190815260200160002060008473ffffffffffffffffffffffffffffffffffffffff1673ffffffffffffffffffffffffffffffffffffffff16815260200190815260200160002060006101000a81548160ff0219169083151502179055508173ffffffffffffffffffffffffffffffffffffffff168373ffffffffffffffffffffffffffffffffffffffff167f17307eab39ab6107e8899845ad3d59bd9653f200f220920489ca2b5937696c318360405161341091906146c1565b60405180910390a3505050565b613428848484612d0e565b61343484848484613483565b613473576040517f08c379a000000000000000000000000000000000000000000000000000000000815260040161346a906146fe565b60405180910390fd5b50505050565b505050565b505050565b60006134a48473ffffffffffffffffffffffffffffffffffffffff1661361a565b1561360d578373ffffffffffffffffffffffffffffffffffffffff1663150b7a026134cd612b6f565b8786866040518563ffffffff1660e01b81526004016134ef949392919061460f565b602060405180830381600087803b15801561350957600080fd5b505af192505050801561353a57506040513d601f19601f820116820180604052508101906135379190613bf9565b60015b6135bd573d806000811461356a576040519150601f19603f3d011682016040523d82523d6000602084013e61356f565b606091505b506000815114156135b5576040517f08c379a00000000000000000000000000000000000000000000000000000000081526004016135ac906146fe565b60405180910390fd5b805181602001fd5b63150b7a0260e01b7bffffffffffffffffffffffffffffffffffffffffffffffffffffffff1916817bffffffffffffffffffffffffffffffffffffffffffffffffffffffff191614915050613612565b600190505b949350505050565b6000808273ffffffffffffffffffffffffffffffffffffffff163b119050919050565b82805461364990614bf9565b90600052602060002090601f01602090048101928261366b57600085556136b2565b82601f1061368457805160ff19168380011785556136b2565b828001600101855582156136b2579182015b828111156136b1578251825591602001919060010190613696565b5b5090506136bf91906137d0565b5090565b8260038101928215613705579160200282015b828111156137045782518290805190602001906136f492919061363d565b50916020019190600101906136d6565b5b50905061371291906137ed565b5090565b8260028101928215613758579160200282015b8281111561375757825182908051906020019061374792919061363d565b5091602001919060010190613729565b5b50905061376591906137ed565b5090565b60405180604001604052806002905b60608152602001906001900390816137785790505090565b82600281019282156137bf579160200282015b828111156137be5782518255916020019190600101906137a3565b5b5090506137cc91906137d0565b5090565b5b808211156137e95760008160009055506001016137d1565b5090565b5b8082111561380d57600081816138049190613811565b506001016137ee565b5090565b50805461381d90614bf9565b6000825580601f1061382f575061384e565b601f01602090049060005260206000209081019061384d91906137d0565b5b50565b600061386461385f8461491e565b6148f9565b9050828152602081018484840111156138805761387f614dc6565b5b61388b848285614bb7565b509392505050565b60006138a66138a18461494f565b6148f9565b9050828152602081018484840111156138c2576138c1614dc6565b5b6138cd848285614bb7565b509392505050565b6000813590506138e481615215565b92915050565b6000813590506138f98161522c565b92915050565b60008135905061390e81615243565b92915050565b60008151905061392381615243565b92915050565b600082601f83011261393e5761393d614dc1565b5b813561394e848260208601613851565b91505092915050565b600082601f83011261396c5761396b614dc1565b5b813561397c848260208601613893565b91505092915050565b6000813590506139948161525a565b92915050565b6000602082840312156139b0576139af614dd0565b5b60006139be848285016138d5565b91505092915050565b600080604083850312156139de576139dd614dd0565b5b60006139ec858286016138d5565b92505060206139fd858286016138d5565b9150509250929050565b600080600060608486031215613a2057613a1f614dd0565b5b6000613a2e868287016138d5565b9350506020613a3f868287016138d5565b9250506040613a5086828701613985565b9150509250925092565b60008060008060808587031215613a7457613a73614dd0565b5b6000613a82878288016138d5565b9450506020613a93878288016138d5565b9350506040613aa487828801613985565b925050606085013567ffffffffffffffff811115613ac557613ac4614dcb565b5b613ad187828801613929565b91505092959194509250565b60008060408385031215613af457613af3614dd0565b5b6000613b02858286016138d5565b9250506020613b13858286016138ea565b9150509250929050565b600080600060608486031215613b3657613b35614dd0565b5b6000613b44868287016138d5565b935050602084013567ffffffffffffffff811115613b6557613b64614dcb565b5b613b7186828701613957565b9250506040613b8286828701613985565b9150509250925092565b60008060408385031215613ba357613ba2614dd0565b5b6000613bb1858286016138d5565b9250506020613bc285828601613985565b9150509250929050565b600060208284031215613be257613be1614dd0565b5b6000613bf0848285016138ff565b91505092915050565b600060208284031215613c0f57613c0e614dd0565b5b6000613c1d84828501613914565b91505092915050565b600060208284031215613c3c57613c3b614dd0565b5b600082013567ffffffffffffffff811115613c5a57613c59614dcb565b5b613c6684828501613957565b91505092915050565b60008060408385031215613c8657613c85614dd0565b5b600083013567ffffffffffffffff811115613ca457613ca3614dcb565b5b613cb085828601613957565b925050602083013567ffffffffffffffff811115613cd157613cd0614dcb565b5b613cdd85828601613957565b9150509250929050565b600080600060608486031215613d0057613cff614dd0565b5b600084013567ffffffffffffffff811115613d1e57613d1d614dcb565b5b613d2a86828701613957565b9350506020613d3b86828701613985565b9250506040613d4c86828701613985565b9150509250925092565b600060208284031215613d6c57613d6b614dd0565b5b6000613d7a84828501613985565b91505092915050565b60008060408385031215613d9a57613d99614dd0565b5b6000613da885828601613985565b925050602083013567ffffffffffffffff811115613dc957613dc8614dcb565b5b613dd585828601613957565b9150509250929050565b600080600060608486031215613df857613df7614dd0565b5b6000613e0686828701613985565b935050602084013567ffffffffffffffff811115613e2757613e26614dcb565b5b613e3386828701613957565b925050604084013567ffffffffffffffff811115613e5457613e53614dcb565b5b613e6086828701613957565b9150509250925092565b60008060008060808587031215613e8457613e83614dd0565b5b6000613e9287828801613985565b945050602085013567ffffffffffffffff811115613eb357613eb2614dcb565b5b613ebf87828801613957565b935050604085013567ffffffffffffffff811115613ee057613edf614dcb565b5b613eec87828801613957565b925050606085013567ffffffffffffffff811115613f0d57613f0c614dcb565b5b613f1987828801613957565b91505092959194509250565b600080600080600060a08688031215613f4157613f40614dd0565b5b6000613f4f88828901613985565b955050602086013567ffffffffffffffff811115613f7057613f6f614dcb565b5b613f7c88828901613957565b945050604086013567ffffffffffffffff811115613f9d57613f9c614dcb565b5b613fa988828901613957565b9350506060613fba88828901613985565b925050608086013567ffffffffffffffff811115613fdb57613fda614dcb565b5b613fe788828901613957565b9150509295509295909350565b6000806040838503121561400b5761400a614dd0565b5b600061401985828601613985565b925050602061402a85828601613985565b9150509250929050565b60008060006060848603121561404d5761404c614dd0565b5b600061405b86828701613985565b935050602061406c86828701613985565b925050604084013567ffffffffffffffff81111561408d5761408c614dcb565b5b61409986828701613957565b9150509250925092565b6000806000606084860312156140bc576140bb614dd0565b5b60006140ca86828701613985565b93505060206140db86828701613985565b92505060406140ec86828701613985565b9150509250925092565b60006141028383614340565b905092915050565b600061411683836145bf565b60208301905092915050565b61412b81614b43565b82525050565b600061413c826149bf565b6141468185614a1d565b93508360208202850161415885614980565b8060005b85811015614194578484038952815161417585826140f6565b9450614180836149f6565b925060208a0199505060018101905061415c565b50829750879550505050505092915050565b60006141b1826149ca565b6141bb8185614a28565b9350836020820285016141cd8561498a565b8060005b8581101561420957848403895281516141ea85826140f6565b94506141f583614a03565b925060208a019950506001810190506141d1565b50829750879550505050505092915050565b6000614226826149d5565b6142308185614a39565b935061423b8361499a565b8060005b8381101561426c578151614253888261410a565b975061425e83614a10565b92505060018101905061423f565b5085935050505092915050565b61428281614b55565b82525050565b6000614293826149e0565b61429d8185614a4a565b93506142ad818560208601614bc6565b6142b681614dd5565b840191505092915050565b600081546142ce81614bf9565b6142d88186614a5b565b945060018216600081146142f3576001811461430457614337565b60ff19831686528186019350614337565b61430d856149aa565b60005b8381101561432f57815481890152600182019150602081019050614310565b838801955050505b50505092915050565b600061434b826149eb565b6143558185614a66565b9350614365818560208601614bc6565b61436e81614dd5565b840191505092915050565b6000614384826149eb565b61438e8185614a77565b935061439e818560208601614bc6565b6143a781614dd5565b840191505092915050565b60006143bf603283614a77565b91506143ca82614de6565b604082019050919050565b60006143e2602583614a77565b91506143ed82614e35565b604082019050919050565b6000614405601c83614a77565b915061441082614e84565b602082019050919050565b6000614428602483614a77565b915061443382614ead565b604082019050919050565b600061444b601983614a77565b915061445682614efc565b602082019050919050565b600061446e602c83614a77565b915061447982614f25565b604082019050919050565b6000614491603883614a77565b915061449c82614f74565b604082019050919050565b60006144b4602a83614a77565b91506144bf82614fc3565b604082019050919050565b60006144d7602983614a77565b91506144e282615012565b604082019050919050565b60006144fa602083614a77565b915061450582615061565b602082019050919050565b600061451d602c83614a77565b91506145288261508a565b604082019050919050565b6000614540602c83614a77565b915061454b826150d9565b604082019050919050565b6000614563602f83614a77565b915061456e82615128565b604082019050919050565b6000614586602183614a77565b915061459182615177565b604082019050919050565b60006145a9603183614a77565b91506145b4826151c6565b604082019050919050565b6145c881614bad565b82525050565b6145d781614bad565b82525050565b60006145e982846142c1565b915081905092915050565b60006020820190506146096000830184614122565b92915050565b60006080820190506146246000830187614122565b6146316020830186614122565b61463e60408301856145ce565b81810360608301526146508184614288565b905095945050505050565b600060208201905081810360008301526146758184614131565b905092915050565b6000602082019050818103600083015261469781846141a6565b905092915050565b600060208201905081810360008301526146b9818461421b565b905092915050565b60006020820190506146d66000830184614279565b92915050565b600060208201905081810360008301526146f68184614379565b905092915050565b60006020820190508181036000830152614717816143b2565b9050919050565b60006020820190508181036000830152614737816143d5565b9050919050565b60006020820190508181036000830152614757816143f8565b9050919050565b600060208201905081810360008301526147778161441b565b9050919050565b600060208201905081810360008301526147978161443e565b9050919050565b600060208201905081810360008301526147b781614461565b9050919050565b600060208201905081810360008301526147d781614484565b9050919050565b600060208201905081810360008301526147f7816144a7565b9050919050565b60006020820190508181036000830152614817816144ca565b9050919050565b60006020820190508181036000830152614837816144ed565b9050919050565b6000602082019050818103600083015261485781614510565b9050919050565b6000602082019050818103600083015261487781614533565b9050919050565b6000602082019050818103600083015261489781614556565b9050919050565b600060208201905081810360008301526148b781614579565b9050919050565b600060208201905081810360008301526148d78161459c565b9050919050565b60006020820190506148f360008301846145ce565b92915050565b6000614903614914565b905061490f8282614c2b565b919050565b6000604051905090565b600067ffffffffffffffff82111561493957614938614d92565b5b61494282614dd5565b9050602081019050919050565b600067ffffffffffffffff82111561496a57614969614d92565b5b61497382614dd5565b9050602081019050919050565b6000819050919050565b6000819050602082019050919050565b6000819050602082019050919050565b60008190508160005260206000209050919050565b600060029050919050565b600081519050919050565b600081519050919050565b600081519050919050565b600081519050919050565b6000602082019050919050565b6000602082019050919050565b6000602082019050919050565b600081905092915050565b600082825260208201905092915050565b600082825260208201905092915050565b600082825260208201905092915050565b600081905092915050565b600082825260208201905092915050565b600082825260208201905092915050565b6000614a9382614bad565b9150614a9e83614bad565b9250827fffffffffffffffffffffffffffffffffffffffffffffffffffffffffffffffff03821115614ad357614ad2614cd6565b5b828201905092915050565b6000614ae982614bad565b9150614af483614bad565b925082614b0457614b03614d05565b5b828204905092915050565b6000614b1a82614bad565b9150614b2583614bad565b925082821015614b3857614b37614cd6565b5b828203905092915050565b6000614b4e82614b8d565b9050919050565b60008115159050919050565b60007fffffffff0000000000000000000000000000000000000000000000000000000082169050919050565b600073ffffffffffffffffffffffffffffffffffffffff82169050919050565b6000819050919050565b82818337600083830152505050565b60005b83811015614be4578082015181840152602081019050614bc9565b83811115614bf3576000848401525b50505050565b60006002820490506001821680614c1157607f821691505b60208210811415614c2557614c24614d34565b5b50919050565b614c3482614dd5565b810181811067ffffffffffffffff82111715614c5357614c52614d92565b5b80604052505050565b6000614c6782614bad565b91507fffffffffffffffffffffffffffffffffffffffffffffffffffffffffffffffff821415614c9a57614c99614cd6565b5b600182019050919050565b6000614cb082614bad565b9150614cbb83614bad565b925082614ccb57614cca614d05565b5b828206905092915050565b7f4e487b7100000000000000000000000000000000000000000000000000000000600052601160045260246000fd5b7f4e487b7100000000000000000000000000000000000000000000000000000000600052601260045260246000fd5b7f4e487b7100000000000000000000000000000000000000000000000000000000600052602260045260246000fd5b7f4e487b7100000000000000000000000000000000000000000000000000000000600052603260045260246000fd5b7f4e487b7100000000000000000000000000000000000000000000000000000000600052604160045260246000fd5b600080fd5b600080fd5b600080fd5b600080fd5b6000601f19601f8301169050919050565b7f4552433732313a207472616e7366657220746f206e6f6e20455243373231526560008201527f63656976657220696d706c656d656e7465720000000000000000000000000000602082015250565b7f4552433732313a207472616e736665722066726f6d20696e636f72726563742060008201527f6f776e6572000000000000000000000000000000000000000000000000000000602082015250565b7f4552433732313a20746f6b656e20616c7265616479206d696e74656400000000600082015250565b7f4552433732313a207472616e7366657220746f20746865207a65726f2061646460008201527f7265737300000000000000000000000000000000000000000000000000000000602082015250565b7f4552433732313a20617070726f766520746f2063616c6c657200000000000000600082015250565b7f4552433732313a206f70657261746f7220717565727920666f72206e6f6e657860008201527f697374656e7420746f6b656e0000000000000000000000000000000000000000602082015250565b7f4552433732313a20617070726f76652063616c6c6572206973206e6f74206f7760008201527f6e6572206e6f7220617070726f76656420666f7220616c6c0000000000000000602082015250565b7f4552433732313a2062616c616e636520717565727920666f7220746865207a6560008201527f726f206164647265737300000000000000000000000000000000000000000000602082015250565b7f4552433732313a206f776e657220717565727920666f72206e6f6e657869737460008201527f656e7420746f6b656e0000000000000000000000000000000000000000000000602082015250565b7f4552433732313a206d696e7420746f20746865207a65726f2061646472657373600082015250565b7f4552433732313a20617070726f76656420717565727920666f72206e6f6e657860008201527f697374656e7420746f6b656e0000000000000000000000000000000000000000602082015250565b7f4552433732314d657461646174613a2055524920736574206f66206e6f6e657860008201527f697374656e7420746f6b656e0000000000000000000000000000000000000000602082015250565b7f4552433732314d657461646174613a2055524920717565727920666f72206e6f60008201527f6e6578697374656e7420746f6b656e0000000000000000000000000000000000602082015250565b7f4552433732313a20617070726f76616c20746f2063757272656e74206f776e6560008201527f7200000000000000000000000000000000000000000000000000000000000000602082015250565b7f4552433732313a207472616e736665722063616c6c6572206973206e6f74206f60008201527f776e6572206e6f7220617070726f766564000000000000000000000000000000602082015250565b61521e81614b43565b811461522957600080fd5b50565b61523581614b55565b811461524057600080fd5b50565b61524c81614b61565b811461525757600080fd5b50565b61526381614bad565b811461526e57600080fd5b5056fea2646970667358221220153fd9edafda853eb358e59d4626d9c48528cce39bb5a3cf4a29838cf3c33f4464736f6c63430008060033",
  "linkReferences": {},
  "deployedLinkReferences": {}
}